:100000000C94D3000C94FB000C94FB000C94920D08
:100010000C94920D0C94920D0C94150D0C94FB0005
:100020000C94FB000C94FB000C94FB000C94FB0064
:100030000C94FB000C94FB000C94FB000C94FB0054
:100040000C94730C0C94FB000C94E30C0C94BD0CFE
:100050000C94FB000C94FB000C94FB000C94FB0034
:100060000C94FB000C94FB00010000000000000059
:1000700082800000000000008A80000000000080F4
:1000800000800080000000808B80000000000000E5
:1000900001000080000000008180008000000080DE
:1000A00009800000000000808A00000000000000BD
:1000B00088000000000000000980008000000000AF
:1000C0000A000080000000008B800080000000001B
:1000D0008B0000000000008089800000000000808C
:1000E000038000000000008002800000000000800B
:1000F00080000000000000800A8000000000000076
:100100000A000080000000808180008000000080E4
:1001100080800000000000800100008000000000DE
:100120000880008000000080FB3879222E9568430B
:10013000F83262CCD1AE377066104AFA8932CB49B8
:10014000255F94E6B08FB1920000000024002700E4
:100150002A0000000008000201000003040700005C
:10016000000000000000000000002300260029001D
:1001700000000000250028002B00040404040404EF
:100180000404020202020202030303030303010246
:100190000408102040800102040810200102040815
:1001A00010203E0E0A0E11241FBECFEFD8E0DEBF96
:1001B000CDBF12E0A0E0B1E0E6EAFBE202C00590AC
:1001C0000D92AA31B107D9F723E0AAE1B2E001C04C
:1001D0001D92A03EB207E1F710E0C2EDD0E004C0EE
:1001E0002197FE010E94C213C13DD107C9F70E94A9
:1001F0000A0F0C94C6150C94000090E0FC01EE5A16
:10020000FE4F2491FC01E257FE4F3491FC01E65869
:10021000FE4FE491EE23C9F0222339F0233001F19F
:10022000A8F4213019F1223029F1F0E0EE0FFF1F80
:10023000E059FE4FA591B4918FB7F894EC916111FC
:1002400026C030953E233C938FBF08952730A9F0F8
:100250002830C9F0243049F7809180008F7D03C099
:10026000809180008F7780938000DFCF84B58F7777
:1002700084BDDBCF84B58F7DFBCF8091B0008F77BD
:100280008093B000D2CF8091B0008F7DF9CF3E2B0C
:10029000DACFCF93DF9390E0FC01E257FE4F249139
:1002A00086589E4FFC0184918823D1F090E0880FFE
:1002B000991FFC01E85BFE4FA591B491FC01E05948
:1002C000FE4FC591D49161110EC09FB7F8948C91E7
:1002D000E22FE0958E238C932881E223E8839FBF51
:1002E000DF91CF9108958FB7F894EC91E22BEC93C6
:1002F0008FBFF6CFAF92BF92CF92DF92EF92FF9275
:100300000F931F93CF93DF936C017B018B01040F3D
:10031000151FEB015E01AE18BF08C017D10759F0D9
:100320006991D601ED91FC910190F081E02DC6011B
:100330000995892B79F7C501DF91CF911F910F9115
:10034000FF90EF90DF90CF90BF90AF900895FC01A9
:10035000538D448D252F30E0842F90E0821B930B2A
:10036000541710F0CF96089501970895FC01918DD0
:10037000828D981761F0A28DAE0FBF2FB11D5D96D3
:100380008C91928D9F5F9F73928F90E008958FEF75
:100390009FEF0895FC01918D828D981731F0828D29
:1003A000E80FF11D858D90E008958FEF9FEF089580
:1003B000FC01918D228D892F90E0805C9F4F821BE4
:1003C00091098F73992708958AE892E00E94D801D5
:1003D00021E0892B09F420E0822F089580E090E04D
:1003E000892B29F00E94E40181110C9400000895EA
:1003F000FC01A48DA80FB92FB11DA35ABF4F2C919A
:10040000848D90E001968F739927848FA689B78990
:100410002C93A089B1898C91837080648C93938D87
:10042000848D981306C00288F389E02D80818F7D2A
:1004300080830895EF92FF920F931F93CF93DF93E2
:10044000EC0181E0888F9B8D8C8D98131AC0E88910
:10045000F989808185FF15C09FB7F894EE89FF89DF
:100460006083E889F98980818370806480839FBF7D
:1004700081E090E0DF91CF911F910F91FF90EF907D
:100480000895F62E0B8D10E00F5F1F4F0F7311278D
:10049000E02E8C8D8E110CC00FB607FCFACFE889C8
:1004A000F989808185FFF5CFCE010E94F801F1CF57
:1004B000EB8DEC0FFD2FF11DE35AFF4FF0829FB73C
:1004C000F8940B8FEA89FB8980818062CFCFCF932C
:1004D000DF93EC01888D8823B9F0AA89BB89E8896C
:1004E000F9898C9185FD03C0808186FD0DC00FB612
:1004F00007FCF7CF8C9185FFF2CF808185FFEDCF90
:10050000CE010E94F801E9CFDF91CF910895845385
:100510009F4FFC01808190E0089580E290E0089573
:100520002F923F924F925F926F927F928F929F9203
:10053000AF92BF92CF92DF92EF92FF920F931F93F1
:10054000CF93DF93CDB7DEB7CC5CD1090FB6F8946B
:10055000DEBF0FBECDBF3C0188E6482E80E0582E9E
:100560009E012F5F3F4F1901D101F301DF93CF931C
:10057000CA2FDB2F45E080809180A280B380C480A9
:10058000D580E680F78034E0B89600808024018032
:1005900090240280A0240380B0240480C02405801D
:1005A000D0240680E0240780F0243A9569F78D92E4
:1005B0009D92AD92BD92CD92DD92ED92FD92E85961
:1005C000F1094A95C1F6B897989788849984AA84C6
:1005D000BB84CC84DD84EE84FF84880C991CAA1C27
:1005E000BB1CCC1CDD1CEE1CFF1C811C08A0802445
:1005F00009A090240AA0A0240BA0B0240CA0C02421
:100600000DA0D0240EA0E0240FA0F02435E000803F
:100610000824008201800924018202800A240282C7
:1006200003800B24038204800C24048205800D24A3
:10063000058206800E24068207800F240782B89662
:100640003A9529F7E05CF10988889988AA88BB88DF
:10065000CC88DD88EE88FF88880C991CAA1CBB1CFE
:10066000CC1CDD1CEE1CFF1C811C08808024098032
:1006700090240A80A0240B80B0240C80C0240D801C
:10068000D0240E80E0240F80F02435E00080082480
:10069000008201800924018202800A2402820380F0
:1006A0000B24038204800C24048205800D2405821F
:1006B00006800E24068207800F240782B8963A959A
:1006C00029F7E05CF109888C998CAA8CBB8CCC8CC6
:1006D000DD8CEE8CFF8C880C991CAA1CBB1CCC1CDE
:1006E000DD1CEE1CFF1C811C0884802409849024DE
:1006F0000A84A0240B84B0240C84C0240D84D0244C
:100700000E84E0240F84F02435E000800824008269
:1007100001800924018202800A24028203800B24C2
:10072000038204800C24048205800D240582068047
:100730000E24068207800F240782B8963A9529F77F
:10074000E05CF10988A099A0AAA0BBA0CCA0DDA084
:10075000EEA0FFA0880C991CAA1CBB1CCC1CDD1CA5
:10076000EE1CFF1C811C08888024098890240A88BC
:10077000A0240B88B0240C88C0240D88D0240E88B7
:10078000E0240F88F02435E00080082400820180F6
:100790000924018202800A24028203800B2403823E
:1007A00004800C24048205800D24058206800E241A
:1007B000068207800F240782B8963A9529F7E05CF5
:1007C000F10988809980AA80BB80CC80DD80EE8092
:1007D000FF80880C991CAA1CBB1CCC1CDD1CEE1CC9
:1007E000FF1C811C088C8024098C90240A8CA02476
:1007F0000B8CB0240C8CC0240D8CD0240E8CE024E7
:100800000F8CF02435E00080082400820180092448
:10081000018202800A24028203800B240382048066
:100820000C24048205800D24058206800E24068295
:1008300007800F240782B8963A9529F7E85EF109F8
:1008400080809180A280B380C480D580E680F780CC
:100850008D929D92AD92BD92CD92DD92ED92FD92E0
:100860009096808C918CA28CB38CC48CD58CE68CA9
:10087000F78C880C991CAA1CBB1CCC1CDD1CEE1C24
:10088000FF1C811C880C991CAA1CBB1CCC1CDD1CE9
:10089000EE1CFF1C811C880C991CAA1CBB1CCC1CC8
:1008A000DD1CEE1CFF1C811C880C991CAA1CBB1CA7
:1008B000CC1CDD1CEE1CFF1C811CDD92ED92FD9218
:1008C0008D929D92AD92BD92CD92909680849184AE
:1008D000A284B384C484D584E684F784880C991CEC
:1008E000AA1CBB1CCC1CDD1CEE1CFF1C811C8D92A9
:1008F0009D92AD92BD92CD92DD92ED92FD92909639
:1009000080A091A0A2A0B3A0C4A0D5A0E6A0F7A00B
:10091000880C991CAA1CBB1CCC1CDD1CEE1CFF1CEB
:10092000811C880C991CAA1CBB1CCC1CDD1CEE1C59
:10093000FF1C811C880C991CAA1CBB1CCC1CDD1C38
:10094000EE1CFF1C811CDD92ED92FD928D929D921A
:10095000AD92BD92CD92909680889188A288B388FE
:10096000C488D588E688F78880FAF794E794D79406
:10097000C794B794A79497948794F7F880FAF7945C
:10098000E794D794C794B794A79497948794F7F86B
:100990008D929D92AD92BD92CD92DD92ED92FD929F
:1009A000A05AB109B89680849184A284B384C48487
:1009B000D584E684F784880C991CAA1CBB1CCC1C2B
:1009C000DD1CEE1CFF1C811C880C991CAA1CBB1C86
:1009D000CC1CDD1CEE1CFF1C811C880C991CAA1C65
:1009E000BB1CCC1CDD1CEE1CFF1C811C880C991C44
:1009F000AA1CBB1CCC1CDD1CEE1CFF1C811CBD9268
:100A0000CD92DD92ED92FD928D929D92AD92909657
:100A100080A091A0A2A0B3A0C4A0D5A0E6A0F7A0FA
:100A2000880C991CAA1CBB1CCC1CDD1CEE1CFF1CDA
:100A3000811C880C991CAA1CBB1CCC1CDD1CEE1C48
:100A4000FF1C811C880C991CAA1CBB1CCC1CDD1C27
:100A5000EE1CFF1C811C880C991CAA1CBB1CCC1C06
:100A6000DD1CEE1CFF1C811CED92FD928D929D926F
:100A7000AD92BD92CD92DD92909680889188A288A9
:100A8000B388C488D588E688F78880FAF794E79415
:100A9000D794C794B794A79497948794F7F880FA5B
:100AA000F794E794D794C794B794A79497948794AE
:100AB000F7F8FD928D929D92AD92BD92CD92DD920E
:100AC000ED92909680809180A280B380C480D58082
:100AD000E680F780880C991CAA1CBB1CCC1CDD1C72
:100AE000EE1CFF1C811C880C991CAA1CBB1CCC1C76
:100AF000DD1CEE1CFF1C811C880C991CAA1CBB1C55
:100B0000CC1CDD1CEE1CFF1C811C880C991CAA1C33
:100B1000BB1CCC1CDD1CEE1CFF1C811CCD92DD928D
:100B2000ED92FD928D929D92AD92BD929096808CA9
:100B3000918CA28CB38CC48CD58CE68CF78C80FA0B
:100B4000F794E794D794C794B794A794979487940D
:100B5000F7F89D92AD92BD92CD92DD92ED92FD920D
:100B60008D92A05AB109B89680889188A288B388DE
:100B7000C488D588E688F788880C991CAA1CBB1CF9
:100B8000CC1CDD1CEE1CFF1C811C880C991CAA1CB3
:100B9000BB1CCC1CDD1CEE1CFF1C811C880C991C92
:100BA000AA1CBB1CCC1CDD1CEE1CFF1C811CBD92B6
:100BB000CD92DD92ED92FD928D929D92AD929096A6
:100BC00080809180A280B380C480D580E680F78049
:100BD000880C991CAA1CBB1CCC1CDD1CEE1CFF1C29
:100BE000811C880C991CAA1CBB1CCC1CDD1CEE1C97
:100BF000FF1C811C880C991CAA1CBB1CCC1CDD1C76
:100C0000EE1CFF1C811C8D929D92AD92BD92CD92E7
:100C1000DD92ED92FD929096808C918CA28CB38C9B
:100C2000C48CD58CE68CF78C880C991CAA1CBB1C38
:100C3000CC1CDD1CEE1CFF1C811CDD92ED92FD9294
:100C40008D929D92AD92BD92CD929096808491842A
:100C5000A284B384C484D584E684F784880C991C68
:100C6000AA1CBB1CCC1CDD1CEE1CFF1C811C880CB0
:100C7000991CAA1CBB1CCC1CDD1CEE1CFF1C811C7F
:100C8000FD928D929D92AD92BD92CD92DD92ED92AC
:100C9000909680A091A0A2A0B3A0C4A0D5A0E6A0E9
:100CA000F7A080FAF794E794D794C794B794A794E1
:100CB00097948794F7F8BD92CD92DD92ED92FD92D4
:100CC0008D929D92AD92A05AB109B896808C918C6C
:100CD000A28CB38CC48CD58CE68CF78C80FAF794FC
:100CE000E794D794C794B794A79497948794F7F808
:100CF00080FAF794E794D794C794B794A7949794FD
:100D00008794F7F880FAF794E794D794C794B79448
:100D1000A79497948794F7F8DD92ED92FD928D92C7
:100D20009D92AD92BD92CD92909680849184A28442
:100D3000B384C484D584E684F78480FAF794E79476
:100D4000D794C794B794A79497948794F7F880FAA8
:100D5000F794E794D794C794B794A79497948794FB
:100D6000F7F880FAF794E794D794C794B794A794C8
:100D700097948794F7F8AD92BD92CD92DD92ED9263
:100D8000FD928D929D92909680A091A0A2A0B3A07A
:100D9000C4A0D5A0E6A0F7A0FD928D929D92AD9241
:100DA000BD92CD92DD92ED92909680889188A28836
:100DB000B388C488D588E688F78880FAF794E794E2
:100DC000D794C794B794A79497948794F7F8ED9223
:100DD000FD928D929D92AD92BD92CD92DD929096B4
:100DE00080809180A280B380C480D580E680F78027
:100DF000880C991CAA1CBB1CCC1CDD1CEE1CFF1C07
:100E0000811CBD92CD92DD92ED92FD928D929D92CC
:100E1000AD92A05AB109B89680A091A0A2A0B3A0AB
:100E2000C4A0D5A0E6A0F7A080FAF794E794D794E1
:100E3000C794B794A79497948794F7F880FAF79497
:100E4000E794D794C794B794A79497948794F7F8A6
:100E5000ED92FD928D929D92AD92BD92CD92DD92DA
:100E6000909680889188A288B388C488D588E688BF
:100E7000F78880FAF794E794D794C794B794A79427
:100E800097948794F7F880FAF794E794D794C794E7
:100E9000B794A79497948794F7F880FAF794E79417
:100EA000D794C794B794A79497948794F7F88D92A2
:100EB0009D92AD92BD92CD92DD92ED92FD92909673
:100EC00080809180A280B380C480D580E680F78046
:100ED000880C991CAA1CBB1CCC1CDD1CEE1CFF1C26
:100EE000811C880C991CAA1CBB1CCC1CDD1CEE1C94
:100EF000FF1C811CED92FD928D929D92AD92BD9250
:100F0000CD92DD929096808C918CA28CB38CC48C07
:100F1000D58CE68CF78C9D92AD92BD92CD92DD92F0
:100F2000ED92FD928D92909680849184A284B384F8
:100F3000C484D584E684F784880C991CAA1CBB1C45
:100F4000CC1CDD1CEE1CFF1C811C880C991CAA1CEF
:100F5000BB1CCC1CDD1CEE1CFF1C811C8D929D92C9
:100F6000AD92BD92CD92DD92ED92FD92A85CB10959
:100F7000E05AF10945E088809884A888B88CC8A018
:100F8000D92CD094DA20D824EA2CE094EB20E92460
:100F9000FB2CF094FC20FA241C2D109518211B2505
:100FA000082D009509210C25D082E086F08A108F4B
:100FB00000A389809984A988B98CC9A0D92CD09420
:100FC000DA20D824EA2CE094EB20E924FB2CF094DE
:100FD000FC20FA241C2D109518211B25082D0095A6
:100FE00009210C25D182E186F18A118F01A38A8023
:100FF0009A84AA88BA8CCAA0D92CD094DA20D82492
:10100000EA2CE094EB20E924FB2CF094FC20FA2459
:101010001C2D109518211B25082D009509210C2544
:10102000D282E286F28A128F02A38B809B84AB88E5
:10103000BB8CCBA0D92CD094DA20D824EA2CE09415
:10104000EB20E924FB2CF094FC20FA241C2D1095B5
:1010500018211B25082D009509210C25D382E38634
:10106000F38A138F03A38C809C84AC88BC8CCCA0A7
:10107000D92CD094DA20D824EA2CE094EB20E9246F
:10108000FB2CF094FC20FA241C2D109518211B2514
:10109000082D009509210C25D482E486F48A148F4A
:1010A00004A38D809D84AD88BD8CCDA0D92CD09417
:1010B000DA20D824EA2CE094EB20E924FB2CF094ED
:1010C000FC20FA241C2D109518211B25082D0095B5
:1010D00009210C25D582E586F58A158F05A38E801A
:1010E0009E84AE88BE8CCEA0D92CD094DA20D82491
:1010F000EA2CE094EB20E924FB2CF094FC20FA2469
:101100001C2D109518211B25082D009509210C2553
:10111000D682E686F68A168F06A38F809F84AF88D4
:10112000BF8CCFA0D92CD094DA20D824EA2CE0941C
:10113000EB20E924FB2CF094FC20FA241C2D1095C4
:1011400018211B25082D009509210C25D782E7863B
:10115000F78A178F07A3B896A8964A9509F00BCF80
:10116000CF91DF91F201C590D590E590F490C753EF
:10117000DF4FC882D982EA82FB82C95CD040F2018B
:10118000349685909590A590B4909401A50160E067
:1011900070E080E090E000E20E94A913E22FA32E0D
:1011A000942E852EB62EF72FC753DF4FC880D980D7
:1011B000EA80FB80C95CD04097018601EC29A12A16
:1011C0009E28832AD3012C912E2711963C911197AA
:1011D0003A2512964C911297492513965C911397D4
:1011E00058251496EC9114976E2F6B251596EC915B
:1011F00015977E2F7F271696EC9116978E271796B8
:10120000EC9117979E272C9311963C931197129669
:101210004C93129713965C93139714966C931497B0
:1012200015967C93159716968C93169717969C9304
:10123000B8E04B0E511CE8E24E16E1E05E0611F0FC
:101240000C94B402C453DF4F0FB6F894DEBF0FBE48
:10125000CDBFDF91CF911F910F91FF90EF90DF9065
:10126000CF90BF90AF909F908F907F906F905F9046
:101270004F903F902F900895EF92FF920F931F93FE
:10128000CF93DF93EC017C0188ECE80EF11CF701B1
:101290000081E02FE695E695E69588E0E89FF0016D
:1012A0001124EC0FFD1F077088E0089F80011124B6
:1012B00026E030E040E050E060E070E080E090E068
:1012C0000E94A913A0812A272083218132273183FC
:1012D000228142274283238152275383248162271C
:1012E000648325817227758326818227868387817F
:1012F00098279783FE01E653FF4F208130E0C90114
:10130000019797FD0796887FFE01E80FF91F8781F7
:1013100080588783CE010E949002F7011082C75344
:10132000DF4F1882DF91CF911F910F91FF90EF90C7
:101330000895AF92BF92CF92DF92EF92FF920F93F8
:101340001F93CF93DF93EC018B017A01FC01E753EC
:10135000FF4F10826C0188ECC80ED11C5E01AAEC14
:10136000AA0EB11CE114F10489F1D601EC91D5016A
:101370008C918E1B8E151F0411F008F08E2DEC0F32
:10138000FD2FF11D502FB801962F951B981758F47B
:101390009191DB014D91BD019F01215031099427AD
:1013A000D9019C93F1CFF6012081280F208390E092
:1013B000E81AF90A080F191FD5018C912813D2CF0A
:1013C000CE010E949002F6011082CCCFDF91CF9126
:1013D0001F910F91FF90EF90DF90CF90BF90AF9053
:1013E000089502960C949909680F791FFC011082E8
:1013F000019668177907D1F708952EE031E0FC01D6
:1014000021933193CF016AEC70E00C94F4096AECFB
:1014100070E002960C94F409209127033091280380
:101420002817390771F490915F0280916002981734
:1014300041F0E0915F02F0E0E65EFD4F808190E0D8
:1014400008958FEF9FEF08950895EF92FF920F9305
:101450001F93CF93DF93DC015C96ED90FC905D973A
:10146000E114F10479F481E090E013969C938E935B
:10147000129790E080E0DF91CF911F910F91FF9044
:10148000EF9008955196ED91FC91529750968C9162
:101490005097982F90950FB75E962C915E97122FCC
:1014A000127021FD6095F8942081112319F1282BE9
:1014B0002083E7012197F1F728E0462F50E03081A3
:1014C00060FF1AC0382B3083E7012197F1F7BA018A
:1014D00075956795215089F7112381F080818923C3
:1014E00080830FBF5C968D919C910197F1F781E00D
:1014F00090E0C1CF2923DCCF3923E5CF9081892B20
:10150000EFCF20912703309128032817390761F482
:101510008091600220915F0290E0805C9F4F821B6F
:1015200091098F739927089590E080E008952091A4
:1015300027033091280328173907B9F490915F02E7
:1015400080916002981789F0E0915F02F0E0E65E1A
:10155000FD4F808120915F0230E02F5F3F4F2F735E
:10156000332720935F0290E008958FEF9FEF089557
:1015700090E080E008957F928F929F92AF92BF9209
:10158000CF92DF92EF92FF920F931F93CF93DF934F
:10159000EC016B018A015C0182E0A80EB11CC5015F
:1015A0000E943C09FE01E653FF4F10827E01EBECE6
:1015B000EE0EF11CC453DF4F0115110529F1F7019F
:1015C00090818881981728F0C5010E949002F70148
:1015D0001082F70160817880761A7016110611F07A
:1015E00008F0702E872C912C6A0D7B2D711DA401A3
:1015F000C6010E94AF15F7018081780E708208192C
:101600001909C80CD91CD8CFDF91CF911F910F9128
:10161000FF90EF90DF90CF90BF90AF909F908F9012
:101620007F90089528ECFC0111922A95E9F7FC01BE
:10163000E853FF4F108287539F4FFC01108208959B
:10164000AF92BF92CF92DF92FF920F931F93CF93EF
:10165000DF93EC015B016A01F22EFC01E653FF4FC0
:10166000008110E00E94120BA601B501CE010C15FD
:101670001D0570F00E94AF15FE010C0F1D1FE01735
:10168000F10711F18191DF0111978F258C93F7CF2D
:101690000E949909CE010E943C09A80140525109BB
:1016A0006F2D70E0CE0180960E94B81548EC50E096
:1016B000401B510B70E060E0CE01800F911F0E9433
:1016C000B81500E210E0D8CFCE01DF91CF911F9185
:1016D0000F91FF90DF90CF90BF90AF900C9490024D
:1016E0006F927F928F929F92AF92BF92CF92DF9232
:1016F000EF92FF920F931F93CF93DF93CDB7DEB797
:10170000A0970FB6F894DEBF0FBECDBF7C015B0182
:101710004A013901DC01ED91FC910484F585E02D4D
:1017200040E250E0BE016F5F7F4F09956701B2E074
:10173000CB0ED11C2CE5A401B501C6010E94200BE3
:1017400040E250E0BE016F5F7F4FC6010E949909E1
:10175000D701ED91FC910484F585E02DA801B3013A
:10176000C701099560E270E0CE0101960E94F4097C
:10177000A0960FB6F894DEBF0FBECDBFDF91CF911C
:101780001F910F91FF90EF90DF90CF90BF90AF909F
:101790009F908F907F906F90089526E302960C940F
:1017A000200B02960C94120BFB0101900020E9F72C
:1017B0003197AF01461B570BDC01ED91FC91028084
:1017C000F381E02D09948F929F92AF92BF920F9375
:1017D0001F93CF93DF93CDB7DEB7A1970FB6F894E1
:1017E000DEBF0FBECDBF19A2423008F44AE08E0121
:1017F0000F5D1F4F842E912CB12CA12CA5019401BB
:101800000E947813E62FB901CA01EA3004F5E05DC1
:10181000D801EE938D01232B242B252B79F790E013
:1018200080E0109729F0BD0189E293E00E94D40B7B
:10183000A1960FB6F894DEBF0FBECDBFDF91CF915A
:101840001F910F91BF90AF909F908F900895E95C8A
:10185000DFCF66E471E00C94D40B0F931F93CF930A
:10186000DF93EC010E94D40B8C01CE010E94290C65
:10187000800F911FDF91CF911F910F910895CF930A
:10188000DF93EC010E94FD09CE01DF91CF910C9412
:1018900064140E94AA150F931F93CF93DF93EC015A
:1018A00088819981009759F02A813B812617370753
:1018B00030F081E0DF91CF911F910F9108958B015E
:1018C0006F5F7F4F0E94ED14009759F099838883D2
:1018D0001B830A832C813D81232B59F7FC01108245
:1018E000E8CF80E0E7CF1F920F920FB60F9211243E
:1018F0002F933F938F939F93AF93BF9380918602D3
:1019000090918702A0918802B0918902309185025E
:1019100023E0230F2D3758F50196A11DB11D20930B
:1019200085028093860290938702A0938802B093E9
:1019300089028091810290918202A0918302B091EC
:1019400084020196A11DB11D8093810290938202B1
:10195000A0938302B0938402BF91AF919F918F9126
:101960003F912F910F900FBE0F901F90189526E872
:10197000230F0296A11DB11DD2CF1F920F920FB659
:101980000F9211242F933F934F935F936F937F9305
:101990008F939F93AF93BF93EF93FF938AE892E067
:1019A0000E94F801FF91EF91BF91AF919F918F91AC
:1019B0007F916F915F914F913F912F910F900FBE4B
:1019C0000F901F9018951F920F920FB60F9211242F
:1019D0002F938F939F93EF93FF93E0919A02F0914F
:1019E0009B028081E091A002F091A10282FD1BC0C8
:1019F00090818091A3028F5F8F732091A402821740
:101A000041F0E091A302F0E0E657FD4F958F8093FF
:101A1000A302FF91EF919F918F912F910F900FBE95
:101A20000F901F9018958081F4CF1F920F920FB6E0
:101A30000F9211242F934F935F936F937F938F9304
:101A40009F93AF93BF932091840080915B0290910C
:101A50005C02A0915D02B0915E02820F911DA11DFA
:101A6000B11D80935B0290935C02A0935D02B093E2
:101A70005E0280915B0290915C02A0915D02B09148
:101A80005E0240915B0250915C0260915D02709138
:101A90005E022AE0880F991FAA1FBB1F2A95D1F763
:101AA000840F951FA61FB71F80935B0290935C0263
:101AB000A0935D02B0935E0280915B0290915C0204
:101AC000A0915D02B0915E0240915B0250915C0278
:101AD00060915D0270915E0226E0B695A79597959C
:101AE00087952A95D1F784279527A627B72780932E
:101AF0005B0290935C02A0935D02B0935E028091C2
:101B00005A028F5F80935A02BF91AF919F918F913C
:101B10007F916F915F914F912F910F900FBE0F901A
:101B20001F9018951F920F920FB60F9211242F93AA
:101B30003F934F935F936F937F938F939F93AF9355
:101B4000BF93EF93FF93E0912703F0912803309721
:101B500049F0A685B7858585968D91FF14C09C9127
:101B60008923A1F4FF91EF91BF91AF919F918F9144
:101B70007F916F915F914F913F912F910F900FBE89
:101B80000F901F9018959C91892361F7A389B489C0
:101B90009C918589809589238C9386899789019763
:101BA000F1F7608D718DA685B785558538E020E009
:101BB000CB010197F1F7822F90E095958795282F1B
:101BC0004C91452309F02068315091F7868D81FDB5
:101BD00020958091600290E001968F739927309153
:101BE0005F02381799F0A0916002B0E0A65EBD4F89
:101BF0002C9380936002828D938D0197F1F7A389D6
:101C0000B4898C919589892B8C93ACCF868D81601A
:101C1000868FF1CF88E391E090932A038093290384
:101C200080912703909128038952934071F4E091A9
:101C30003C03F0913D03908180913E038095892380
:101C400080831092280310922703F894A89584B7F4
:101C5000877F84BF809160008861809360001092CC
:101C60006000789460E470E088E493E00E94F409F6
:101C700060E470E088E893E00C94F40910928D021F
:101C800010928C0248EE53E060E070E040938E02C8
:101C900050938F02609390027093910286E291E0DC
:101CA00090938B0280938A0285EC90E09093970248
:101CB0008093960284EC90E090939902809398022E
:101CC00080EC90E090939B0280939A0281EC90E0EC
:101CD00090939D0280939C0282EC90E090939F02EF
:101CE00080939E0286EC90E09093A1028093A002E4
:101CF0001092A3021092A4021092A5021092A602C2
:101D00001092C8038091C903807880628F77809396
:101D1000C9031092CA031092CB031092CC03109205
:101D2000CD0380E89EEEA6E3B0E08093CE039093CF
:101D3000CF03A093D003B093D1031092DA03109293
:101D4000DB0310922C0310922B0340932D0350932E
:101D50002E0360932F037093300388E391E09093F8
:101D60002A03809329031092400310923F0310929C
:101D700042031092410310924403109243031092C5
:101D8000460310924503609147036E7F6D7F609319
:101D900047036695617081E068278BE00E94FD0033
:101DA00061E08BE00E944901E9E9F1E0E491E09310
:101DB0003903E5E8F1E0E491F0E0EE0FFF1FE059B0
:101DC000FE4F8591949190933B0380933A0360E09A
:101DD0008AE00E9449018091470381FD04C061E0CF
:101DE0008AE00E94FD008AE080933503E8E9F1E093
:101DF000E491E0933603E4E8F1E0E491F0E0EE0FE3
:101E0000FF1FEA59FE4F8591949190933803809378
:101E100037030895CF93DF93CDB7DEB7C751D140D5
:101E20000FB6F894DEBF0FBECDBF789484B5826044
:101E300084BD84B5816084BD85B5826085BD85B56E
:101E4000816085BD80916E00816080936E001092EC
:101E50008100809181008260809381008091810067
:101E600081608093810080918000816080938000F8
:101E70008091B10084608093B1008091B000816056
:101E80008093B00080917A00846080937A00809182
:101E90007A00826080937A0080917A0081608093DA
:101EA0007A0080917A00806880937A001092C10055
:101EB000E0919A02F0919B0282E08083E091960289
:101EC000F09197021082E0919802F091990280E1DE
:101ED00080831092A202E0919E02F0919F0286E020
:101EE0008083E0919C02F0919D02808180618083DB
:101EF000E0919C02F0919D02808188608083E09156
:101F00009C02F0919D02808180688083E0919C0218
:101F1000F0919D0280818F7D80838AE892E00E940B
:101F2000290C69E471E08AE892E00E942D0C10927D
:101F30004403109243031092420310924103109203
:101F4000400310923F038DE991E090934603809304
:101F5000450390913503963108F047C02DEB30E0F2
:101F60003093400320933F032BE931E03093420349
:101F7000209341032CE231E0309344032093430348
:101F80002091680084E0983048F031E09E3008F4F9
:101F900030E081E001C0880F3A95EAF7822B809308
:101FA00068002DE630E0983050F02BE630E09E30AF
:101FB00030F02CE630E0963110F030E020E0309345
:101FC0003D0320933C03292F30E0983008F0D3C024
:101FD00081E001C0880F9A95EAF780933E038091D3
:101FE0004503909146030197F1F780914303909147
:101FF0004403892B49F1E0912703F091280383E002
:10200000E932F80709F1309739F0A389B4899C9136
:102010008589809589238C93809147038E7F809357
:1020200047031092600210925F0289E293E090935E
:10203000280380932703E0913C03F0913D038081C6
:1020400090913E03892B808368E871E089E293E0F8
:102050000E942D0C61E08DE00E94490160E08DE05E
:102060000E94FD009DE5492E512C612C712C8EE0C3
:10207000882E81E0982E7E0193E0E90EF11C89E222
:1020800093E00E94810A892B09F4C2C1C25FDE4F2E
:1020900019821882CE50D140C05FDE4F198218825B
:1020A000C051D140CE5EDE4F19821882C251D1405C
:1020B00070E060E0CE01825F9E4F0E944B0CC25FD9
:1020C000DE4F28813981CE50D140811161C0211568
:1020D000310519F0C9010E946414C25FDE4F1982F4
:1020E0001882CE50D140CE5EDE4F19821882C25186
:1020F000D140C05FDE4F19821882C051D14089E2C1
:1021000093E00E94810A892BD1F389E293E00E9437
:10211000970A8D3009F448C0CE5EDE4F08811981E0
:10212000C251D1408A3009F43FC089831A820F5FBF
:102130001F4FB801CE01825F9E4F0E944B0C882337
:10214000F1F2C25FDE4F28813981CE50D140CE5EA0
:10215000DE4F88819981C251D140BE016F5F7F4FB0
:10216000820F931F0E94BF15CE5EDE4F1983088336
:10217000C251D140C4CF9E3040F42850310981E093
:1021800001C0880F2A95EAF728CF2E503109F7CFE2
:10219000CE5EDE4F19821882C251D14068E471E0F0
:1021A000C9010E94BF15ABCFC25FDE4FA880B980C6
:1021B000CE50D140A114B10459F0CE5EDE4F08815B
:1021C0001981C251D14065010115110509F02EC1D7
:1021D000CE5EDE4F88819981C251D1406EE771E0B9
:1021E000892B09F407C1C25FDE4F08811981CE50E7
:1021F000D1409A82898288ECF70111928A95E9F799
:10220000C553DF4F1882CB5CD040C453DF4F1882D8
:10221000CC5CD04088E8C353DF4F8883CD5CD0408E
:10222000C7010E94120BC7010E94120BF801019016
:102230000020E9F73197AF01401B510BB801C701EE
:102240000E94990940E250E0BE0162517F4FCE01E9
:1022500001960E94BB0ACE0101960E94FD09E8E2A8
:10226000F1E08E0102531F4F9801205E3F4FD801CD
:102270009AEA849189278D9331962A173B07C9F7EB
:1022800061E08DE00E94FD00FE01E251FF4F9F01E1
:10229000205E3F4F80E09191D8014D918D019427B0
:1022A000892BE217F307B9F7811102C168E971E0E0
:1022B00089E293E00E942D0C8E010C5E1E4F5801A6
:1022C000B4E0AB0EB11C68010E94AB12A3019201F5
:1022D0000E940F136F5D7F4F8F4F9F4FF6016193E9
:1022E0006F01EA15FB0581F79A82898288ECD70194
:1022F0001D928A95E9F7C553DF4F1882CB5CD04019
:10230000C453DF4F1882CC5CD04088E8C353DF4F02
:102310008883CD5CD040C7010E94120BC7010E9488
:10232000120B44E050E0B801C7010E94990949E14D
:1023300050E065EC71E0C7010E94990940E250E06D
:1023400061E672E0CE0101960E94BB0ACE010196C1
:102350000E94FD096FED71E089E293E00E94D40BC9
:10236000F80181918F01803130F463EF71E089E2EF
:1023700093E00E94D40BF8013197608170E090E007
:1023800080E040E10E94E30BC016D10649F789E2E4
:1023900093E00E94290C65EF71E089E293E00E94CE
:1023A000D40B01E612E0D8018D918D01803130F41B
:1023B00063EF71E089E293E00E94D40BF80131975A
:1023C000608170E090E080E040E10E94E30BE1E892
:1023D000F2E0E017F10739F789E293E00E94290C57
:1023E00060E08DE00E94FD0089E293E00E94290CEC
:1023F00068E871E089E293E00E942D0CC25FDE4F35
:1024000088819981CE50D140009711F00E946414C8
:1024100080E090E0892B09F432CE0E94E401882309
:1024200009F425CE0E94000022CE61011601AFEF13
:102430002A1A3A0AF6018081082E000C990B0E9494
:102440000313892B91F7015011090A0D1B1DD801A7
:102450008C91082E000C990B0E940313892B31F0EC
:102460000C151D0518F001501109F1CFA8014F5F9F
:102470005F4F4C195D09CE5EDE4F59834883C251D0
:10248000D140AC14BD0420F4B601C5010E94AF15C3
:10249000C25FDE4FE881F981CE50D140CE5EDE4F83
:1024A00088819981C251D140E80FF91F108290CEE6
:1024B00069E072E089E293E00E942D0C91CF8F9247
:1024C0009F92AF92BF92CF92DF92EF92FF92CF9303
:1024D000DF93EC01688179818A819B8161157105A7
:1024E0008105910521F464E279ED8BE597E02DE11A
:1024F00033EF41E050E00E940F1349015A019B0164
:10250000AC01A7EAB1E40E942E136B017C01ACEE92
:10251000B4EFA50194010E943C13C60ED71EE81E1D
:10252000F91EF7FE06C081E0C81AD108E10880E86C
:10253000F80AC882D982EA82FB82C701B6019F7776
:10254000DF91CF91FF90EF90DF90CF90BF90AF9051
:102550009F908F9008958F929F92AF92BF92CF924B
:10256000DF92EF92FF9260910001709101018091E2
:10257000020190910301611571058105910521F416
:1025800064E279ED8BE597E02DE133EF41E050E037
:102590000E940F1349015A019B01AC01A7EAB1E463
:1025A0000E942E136B017C01ACEEB4EFA5019401E7
:1025B0000E943C13C60ED71EE81EF91EF7FE06C089
:1025C00081E0C81AD108E10880E8F80AC092000149
:1025D000D0920101E0920201F0920301C701B6011D
:1025E0009F77FF90EF90DF90CF90BF90AF909F903C
:1025F0008F90089560930001709301018093020110
:1026000090930301089591110C940C13803219F0EA
:1026100089508550C8F70895992788270895052E71
:1026200097FB1EF400940E94261357FD07D00E94CA
:10263000781307FC03D04EF40C9426135095409564
:10264000309521953F4F4F4F5F4F0895909580955E
:10265000709561957F4F8F4F9F4F08950E949A13F9
:10266000A59F900DB49F900DA49F800D911D1124E6
:102670000895B7FF0C942E130E942E13821B930B08
:1026800008952F923F924F925F926F927F928F9216
:102690009F92AF92BF92CF92DF92EF92FF920F93F1
:1026A0001F93CF93DF93CDB7DEB7CA1BDB0B0FB6FB
:1026B000F894DEBF0FBECDBF09942A8839884888B8
:1026C0005F846E847D848C849B84AA84B984C8844E
:1026D000DF80EE80FD800C811B81AA81B981CE0F45
:1026E000D11D0FB6F894DEBF0FBECDBFED0108952A
:1026F000A1E21A2EAA1BBB1BFD010DC0AA1FBB1F06
:10270000EE1FFF1FA217B307E407F50720F0A21B77
:10271000B30BE40BF50B661F771F881F991F1A94E4
:1027200069F760957095809590959B01AC01BD010E
:10273000CF010895A29FB001B39FC001A39F700D68
:10274000811D1124911DB29F700D811D1124911DB9
:102750000895002E083090F0982F872F762F652F40
:10276000542F432F322F22270850F4CF220F331F2C
:10277000441F551F661F771F881F991F0A95B2F7C0
:10278000002D0895EE0FFF1F0590F491E02D0994A0
:102790000F931F93CF93DF938230910510F482E063
:1027A00090E0E091DE03F091DF0330E020E0B0E064
:1027B000A0E0309799F42115310509F44AC0281B8F
:1027C000390B24303105D8F58A819B81611571055B
:1027D00089F1FB0193838283FE0111C04081518105
:1027E0000281138148175907E0F04817590799F4F7
:1027F000109761F012960C93129713961C933296D1
:10280000CF01DF91CF911F910F9108950093DE03C7
:102810001093DF03F4CF2115310551F04217530710
:1028200038F0A901DB019A01BD01DF01F801C1CF38
:10283000EF01F9CF9093DF038093DE03CDCFFE014C
:10284000E20FF31F8193919322503109398328833A
:10285000D7CF2091DC033091DD03232B41F420916D
:102860000601309107013093DD032093DC032091B2
:102870000401309105012115310541F42DB73EB712
:102880004091080150910901241B350BE091DC03B4
:10289000F091DD03E217F307A0F42E1B3F0B28177E
:1028A000390778F0AC014E5F5F4F2417350748F0C9
:1028B0004E0F5F1F5093DD034093DC038193919390
:1028C0009FCFF0E0E0E09CCFCF93DF930097E9F05B
:1028D000FC01329713821282A091DE03B091DF03D4
:1028E000ED0130E020E01097A1F420813181820FCA
:1028F000931F2091DC033091DD032817390709F07D
:1029000061C0F093DD03E093DC03DF91CF91089584
:10291000EA01CE17DF07E8F54A815B819E01411588
:102920005105B1F7E901FB83EA8349915991C40F3D
:10293000D51FEC17FD0761F4808191810296840F09
:10294000951FE90199838883828193819B838A8380
:10295000F0E0E0E012968D919C9113970097B9F505
:102960002D913C911197CD010296820F931F2091DA
:10297000DC033091DD032817390739F6309751F51C
:102980001092DF031092DE03B093DD03A093DC030B
:10299000BCCFD383C28340815181840F951FC81758
:1029A000D90761F44E5F5F4F88819981480F591FA5
:1029B000518340838A819B819383828321153105D2
:1029C00009F0B0CFF093DF03E093DE039ECFFD016B
:1029D000DC01C0CF13821282D7CFB0E0A0E0E3EFDA
:1029E000F4E10C9443138C01009751F4CB010E9445
:1029F000C8138C01C801CDB7DEB7E0E10C945F13BA
:102A0000FC01E60FF71F9C0122503109E217F30782
:102A100008F49DC0D901CD91DC911197C617D70755
:102A200098F0C530D10530F3CE010497861797078B
:102A300008F3C61BD70B2297C193D1936D937C9358
:102A4000CF010E946414D6CF5B01AC1ABD0A4C01C1
:102A50008C0E9D1EA091DE03B091DF03512C412C02
:102A6000F12CE12C109731F58091DC039091DD037E
:102A70008815990509F05CC04616570608F058C03D
:102A80008091040190910501009741F48DB79EB7A4
:102A90004091080150910901841B950BE817F90733
:102AA00008F055C0F093DD03E093DC03F901718376
:102AB0006083A0CF8D919C91119712966C90129784
:102AC00013967C901397A815B90559F56C0142E04F
:102AD000C40ED11CCA14DB0420F1AC014A195B09F5
:102AE000DA011296159780F06282738251834083D7
:102AF000D9016D937C93E114F10471F0D701139621
:102B0000FC93EE93129776CF22968C0F9D1FF901BE
:102B100091838083F301EFCFF093DF03E093DE0333
:102B200069CF4816590608F42C017D01D3019ACFCC
:102B3000CB010E94C8137C01009749F0AE01B80197
:102B40000E94AF15C8010E946414870153CF10E0A2
:102B500000E050CF81E090E0F8940C94C615FB01A2
:102B6000DC0102C001900D9241505040D8F7089509
:102B7000DC0101C06D9341505040E0F70895FB0126
:102B8000DC0101900D920020E1F7089510E0C2ED04
:102B9000D0E004C0FE010E94C2132196C33DD107BC
:062BA000C9F7F894FFCF15
:102BA600010000000000E003800000000000FD09B5
:102BB6003F0C8D028702D10BF109BB0A070ACD0B28
:102BC600700B000000001A027A01A7016702D80103
:102BD600B601CA0100000000250A7A01B80A240AD3
:102BE600810A970A0C0A0D0A0057656C636F6D65BA
:102BF60020746F20746865207661756C742E20547D
:102C0600686973206973206E6F7420746865206D1F
:102C160061696E20656E7472616E63652E004E6F1B
:102C260020696E7075742E20456E74657220706111
:102C36007373776F72643A003E3E204143434553B7
:102C460053204752414E5445443A2072756E6E6980
:102C56006E672070726F7465637465642073656354
:102C660074696F6E004A65207375697320756E65A9
:102C76002070657469746520746F72747565004898
:102C860065726520697320796F75722073616C7443
:102C96003A200030004865726520697320796F75A7
:102CA6007220686173683A20003E3E2041434345E6
:0A2CB60053532044454E49454400A5
:00000001FF
